{
  "contractName": "WalmartPaymentSystem",
  "abi": [
    {
      "inputs": [],
      "stateMutability": "nonpayable",
      "type": "constructor"
    },
    {
      "inputs": [
        {
          "internalType": "address",
          "name": "",
          "type": "address"
        }
      ],
      "name": "walmartTransections",
      "outputs": [
        {
          "internalType": "string",
          "name": "dateOfTransection",
          "type": "string"
        },
        {
          "internalType": "string",
          "name": "transectionPerformedBy",
          "type": "string"
        },
        {
          "internalType": "uint256",
          "name": "totalAmountPayed",
          "type": "uint256"
        },
        {
          "components": [
            {
              "internalType": "string",
              "name": "productName",
              "type": "string"
            },
            {
              "internalType": "string",
              "name": "productID",
              "type": "string"
            },
            {
              "internalType": "string",
              "name": "uri",
              "type": "string"
            },
            {
              "components": [
                {
                  "internalType": "string",
                  "name": "storeType",
                  "type": "string"
                },
                {
                  "internalType": "string",
                  "name": "storeName",
                  "type": "string"
                },
                {
                  "internalType": "string",
                  "name": "storeId",
                  "type": "string"
                }
              ],
              "internalType": "struct WalmartPaymentSystem.Store",
              "name": "store",
              "type": "tuple"
            }
          ],
          "internalType": "struct WalmartPaymentSystem.StoreProduct",
          "name": "storeProduct",
          "type": "tuple"
        }
      ],
      "stateMutability": "view",
      "type": "function",
      "constant": true
    },
    {
      "inputs": [
        {
          "internalType": "string",
          "name": "dateOfTransection",
          "type": "string"
        },
        {
          "internalType": "string",
          "name": "transectionPerformedBy",
          "type": "string"
        },
        {
          "internalType": "uint256",
          "name": "totalAmountPayed",
          "type": "uint256"
        },
        {
          "internalType": "address payable",
          "name": "OwnerAccount",
          "type": "address"
        },
        {
          "internalType": "string",
          "name": "productName",
          "type": "string"
        },
        {
          "internalType": "string",
          "name": "productID",
          "type": "string"
        },
        {
          "internalType": "string",
          "name": "productURI",
          "type": "string"
        },
        {
          "internalType": "string",
          "name": "storeType",
          "type": "string"
        },
        {
          "internalType": "string",
          "name": "storeName",
          "type": "string"
        },
        {
          "internalType": "string",
          "name": "storeId",
          "type": "string"
        }
      ],
      "name": "WalmartPaymentInEther",
      "outputs": [],
      "stateMutability": "payable",
      "type": "function",
      "payable": true
    }
  ],
  "bytecode": "0x60806040526000805534801561001457600080fd5b50610f93806100246000396000f3fe608060405260043610610046576000357c010000000000000000000000000000000000000000000000000000000090048063513ce1711461004b5780636f42d5881461008b575b600080fd5b34801561005757600080fd5b50610072600480360381019061006d9190610939565b6100a7565b6040516100829493929190610c54565b60405180910390f35b6100a560048036038101906100a09190610962565b610571565b005b60016020528060005260406000206000915090508060000180546100ca90610e17565b80601f01602080910402602001604051908101604052809291908181526020018280546100f690610e17565b80156101435780601f1061011857610100808354040283529160200191610143565b820191906000526020600020905b81548152906001019060200180831161012657829003601f168201915b50505050509080600101805461015890610e17565b80601f016020809104026020016040519081016040528092919081815260200182805461018490610e17565b80156101d15780601f106101a6576101008083540402835291602001916101d1565b820191906000526020600020905b8154815290600101906020018083116101b457829003601f168201915b505050505090806002015490806003016040518060800160405290816000820180546101fc90610e17565b80601f016020809104026020016040519081016040528092919081815260200182805461022890610e17565b80156102755780601f1061024a57610100808354040283529160200191610275565b820191906000526020600020905b81548152906001019060200180831161025857829003601f168201915b5050505050815260200160018201805461028e90610e17565b80601f01602080910402602001604051908101604052809291908181526020018280546102ba90610e17565b80156103075780601f106102dc57610100808354040283529160200191610307565b820191906000526020600020905b8154815290600101906020018083116102ea57829003601f168201915b5050505050815260200160028201805461032090610e17565b80601f016020809104026020016040519081016040528092919081815260200182805461034c90610e17565b80156103995780601f1061036e57610100808354040283529160200191610399565b820191906000526020600020905b81548152906001019060200180831161037c57829003601f168201915b50505050508152602001600382016040518060600160405290816000820180546103c290610e17565b80601f01602080910402602001604051908101604052809291908181526020018280546103ee90610e17565b801561043b5780601f106104105761010080835404028352916020019161043b565b820191906000526020600020905b81548152906001019060200180831161041e57829003601f168201915b5050505050815260200160018201805461045490610e17565b80601f016020809104026020016040519081016040528092919081815260200182805461048090610e17565b80156104cd5780601f106104a2576101008083540402835291602001916104cd565b820191906000526020600020905b8154815290600101906020018083116104b057829003601f168201915b505050505081526020016002820180546104e690610e17565b80601f016020809104026020016040519081016040528092919081815260200182805461051290610e17565b801561055f5780601f106105345761010080835404028352916020019161055f565b820191906000526020600020905b81548152906001019060200180831161054257829003601f168201915b50505050508152505081525050905084565b87341461057d57600080fd5b600086511161058b57600080fd5b600085511161059957600080fd5b60008251116105a757600080fd5b60008151116105b557600080fd5b60008a51116105c357600080fd5b60008951116105d157600080fd5b6000604051806060016040528085815260200184815260200183815250905060006040518060800160405280898152602001888152602001878152602001838152509050600060405180608001604052808e81526020018d81526020018c815260200183815250905080600160003373ffffffffffffffffffffffffffffffffffffffff1673ffffffffffffffffffffffffffffffffffffffff16815260200190815260200160002060008201518160000190805190602001906106969291906107ef565b5060208201518160010190805190602001906106b39291906107ef565b506040820151816002015560608201518160030160008201518160000190805190602001906106e39291906107ef565b5060208201518160010190805190602001906107009291906107ef565b50604082015181600201908051906020019061071d9291906107ef565b5060608201518160030160008201518160000190805190602001906107439291906107ef565b5060208201518160010190805190602001906107609291906107ef565b50604082015181600201908051906020019061077d9291906107ef565b50505050509050508a6000546107939190610d31565b6000819055508973ffffffffffffffffffffffffffffffffffffffff166108fc8c9081150290604051600060405180830381858888f193505050501580156107df573d6000803e3d6000fd5b5050505050505050505050505050565b8280546107fb90610e17565b90600052602060002090601f01602090048101928261081d5760008555610864565b82601f1061083657805160ff1916838001178555610864565b82800160010185558215610864579182015b82811115610863578251825591602001919060010190610848565b5b5090506108719190610875565b5090565b5b8082111561088e576000816000905550600101610876565b5090565b60006108a56108a084610cd3565b610cae565b9050828152602081018484840111156108bd57600080fd5b6108c8848285610dd5565b509392505050565b6000813590506108df81610f18565b92915050565b6000813590506108f481610f2f565b92915050565b600082601f83011261090b57600080fd5b813561091b848260208601610892565b91505092915050565b60008135905061093381610f46565b92915050565b60006020828403121561094b57600080fd5b6000610959848285016108d0565b91505092915050565b6000806000806000806000806000806101408b8d03121561098257600080fd5b60008b013567ffffffffffffffff81111561099c57600080fd5b6109a88d828e016108fa565b9a505060208b013567ffffffffffffffff8111156109c557600080fd5b6109d18d828e016108fa565b99505060406109e28d828e01610924565b98505060606109f38d828e016108e5565b97505060808b013567ffffffffffffffff811115610a1057600080fd5b610a1c8d828e016108fa565b96505060a08b013567ffffffffffffffff811115610a3957600080fd5b610a458d828e016108fa565b95505060c08b013567ffffffffffffffff811115610a6257600080fd5b610a6e8d828e016108fa565b94505060e08b013567ffffffffffffffff811115610a8b57600080fd5b610a978d828e016108fa565b9350506101008b013567ffffffffffffffff811115610ab557600080fd5b610ac18d828e016108fa565b9250506101208b013567ffffffffffffffff811115610adf57600080fd5b610aeb8d828e016108fa565b9150509295989b9194979a5092959850565b6000610b0882610d04565b610b128185610d0f565b9350610b22818560208601610de4565b610b2b81610f07565b840191505092915050565b6000610b4182610d04565b610b4b8185610d20565b9350610b5b818560208601610de4565b610b6481610f07565b840191505092915050565b60006080830160008301518482036000860152610b8c8282610afd565b91505060208301518482036020860152610ba68282610afd565b91505060408301518482036040860152610bc08282610afd565b91505060608301518482036060860152610bda8282610be7565b9150508091505092915050565b60006060830160008301518482036000860152610c048282610afd565b91505060208301518482036020860152610c1e8282610afd565b91505060408301518482036040860152610c388282610afd565b9150508091505092915050565b610c4e81610dcb565b82525050565b60006080820190508181036000830152610c6e8187610b36565b90508181036020830152610c828186610b36565b9050610c916040830185610c45565b8181036060830152610ca38184610b6f565b905095945050505050565b6000610cb8610cc9565b9050610cc48282610e49565b919050565b6000604051905090565b600067ffffffffffffffff821115610cee57610ced610ed8565b5b610cf782610f07565b9050602081019050919050565b600081519050919050565b600082825260208201905092915050565b600082825260208201905092915050565b6000610d3c82610dcb565b9150610d4783610dcb565b9250827fffffffffffffffffffffffffffffffffffffffffffffffffffffffffffffffff03821115610d7c57610d7b610e7a565b5b828201905092915050565b6000610d9282610dab565b9050919050565b6000610da482610dab565b9050919050565b600073ffffffffffffffffffffffffffffffffffffffff82169050919050565b6000819050919050565b82818337600083830152505050565b60005b83811015610e02578082015181840152602081019050610de7565b83811115610e11576000848401525b50505050565b60006002820490506001821680610e2f57607f821691505b60208210811415610e4357610e42610ea9565b5b50919050565b610e5282610f07565b810181811067ffffffffffffffff82111715610e7157610e70610ed8565b5b80604052505050565b7f4e487b7100000000000000000000000000000000000000000000000000000000600052601160045260246000fd5b7f4e487b7100000000000000000000000000000000000000000000000000000000600052602260045260246000fd5b7f4e487b7100000000000000000000000000000000000000000000000000000000600052604160045260246000fd5b6000601f19601f8301169050919050565b610f2181610d87565b8114610f2c57600080fd5b50565b610f3881610d99565b8114610f4357600080fd5b50565b610f4f81610dcb565b8114610f5a57600080fd5b5056fea2646970667358221220ba79cddf212555c01e66cb1700d7bc3aba9ede0bbdb76e354562c1f9e2b6f14864736f6c63430008030033",
  "immutableReferences": {},
  "source": "// SPDX-License-Identifier: MIT\npragma solidity >=0.4.22 <0.9.0;\n\ncontract WalmartPaymentSystem {\n    uint256 totalWalmartEarning = 0;\n    struct Store {\n        string storeType;\n        string storeName;\n        string storeId;\n    }\n    struct StoreProduct {\n        string productName;\n        string productID;\n        string uri;\n        Store store;\n    }\n    struct Transection {\n        string dateOfTransection;\n        string transectionPerformedBy;\n        uint256 totalAmountPayed;\n        StoreProduct storeProduct;\n    }\n\n    constructor() {}\n\n    mapping(address => Transection) public walmartTransections;\n\n    function WalmartPaymentInEther(\n        string memory dateOfTransection,\n        string memory transectionPerformedBy,\n        uint256 totalAmountPayed,\n        address payable OwnerAccount,\n        string memory productName,\n        string memory productID,\n        string memory productURI,\n        string memory storeType,\n        string memory storeName,\n        string memory storeId\n    ) external payable {\n        // Validate Transection :: =>\n        //    1) validate Amount payed\n        //    2) productName should not be empty\n        //    3) productID should not be empty\n        //    4) storeName should not be empty\n        //    5) storeId should not be empty\n        //    6) dateOfTransection should not be empty\n        //    7) transectionPerformedBy should not be empty\n\n        require(msg.value == totalAmountPayed);\n        require(bytes(productName).length > 0);\n        require(bytes(productID).length > 0);\n        require(bytes(storeName).length > 0);\n        require(bytes(storeId).length > 0);\n        require(bytes(dateOfTransection).length > 0);\n        require(bytes(transectionPerformedBy).length > 0);\n\n        // Store , Store Product , Transection objects ::=>\n        Store memory store = Store(storeType, storeName, storeId);\n        StoreProduct memory storeProduct = StoreProduct(\n            productName,\n            productID,\n            productURI,\n            store\n        );\n        Transection memory transection = Transection(\n            dateOfTransection,\n            transectionPerformedBy,\n            totalAmountPayed,\n            storeProduct\n        );\n        // Object Of transection stored in  walmartTransection in smartcontract\n        walmartTransections[msg.sender] = transection;\n\n        totalWalmartEarning = totalWalmartEarning + totalAmountPayed;\n        // Payment transfered to OwnerAccount\n        OwnerAccount.transfer(totalAmountPayed);\n    }\n}\n",
  "sourcePath": "G:\\PROJECT\\Blockchain Project\\contracts\\WalmartPaymentSystem.sol",
  "compiler": {
    "name": "solc",
    "version": "0.8.3+commit.8d00100c.Emscripten.clang"
  },
  "schemaVersion": "3.4.7",
  "updatedAt": "2022-06-15T21:50:40.238Z",
  "networkType": "ethereum",
  "devdoc": {
    "kind": "dev",
    "methods": {},
    "version": 1
  },
  "userdoc": {
    "kind": "user",
    "methods": {},
    "version": 1
  }
}