{
  "contractName": "WalmartNFT",
  "abi": [
    {
      "inputs": [],
      "stateMutability": "nonpayable",
      "type": "constructor"
    },
    {
      "anonymous": false,
      "inputs": [
        {
          "indexed": true,
          "internalType": "address",
          "name": "owner",
          "type": "address"
        },
        {
          "indexed": true,
          "internalType": "address",
          "name": "approved",
          "type": "address"
        },
        {
          "indexed": true,
          "internalType": "uint256",
          "name": "tokenId",
          "type": "uint256"
        }
      ],
      "name": "Approval",
      "type": "event"
    },
    {
      "anonymous": false,
      "inputs": [
        {
          "indexed": true,
          "internalType": "address",
          "name": "owner",
          "type": "address"
        },
        {
          "indexed": true,
          "internalType": "address",
          "name": "operator",
          "type": "address"
        },
        {
          "indexed": false,
          "internalType": "bool",
          "name": "approved",
          "type": "bool"
        }
      ],
      "name": "ApprovalForAll",
      "type": "event"
    },
    {
      "anonymous": false,
      "inputs": [
        {
          "indexed": true,
          "internalType": "address",
          "name": "from",
          "type": "address"
        },
        {
          "indexed": true,
          "internalType": "address",
          "name": "to",
          "type": "address"
        },
        {
          "indexed": true,
          "internalType": "uint256",
          "name": "tokenId",
          "type": "uint256"
        }
      ],
      "name": "Transfer",
      "type": "event"
    },
    {
      "inputs": [
        {
          "internalType": "address",
          "name": "to",
          "type": "address"
        },
        {
          "internalType": "uint256",
          "name": "tokenId",
          "type": "uint256"
        }
      ],
      "name": "approve",
      "outputs": [],
      "stateMutability": "nonpayable",
      "type": "function"
    },
    {
      "inputs": [
        {
          "internalType": "address",
          "name": "owner",
          "type": "address"
        }
      ],
      "name": "balanceOf",
      "outputs": [
        {
          "internalType": "uint256",
          "name": "",
          "type": "uint256"
        }
      ],
      "stateMutability": "view",
      "type": "function",
      "constant": true
    },
    {
      "inputs": [
        {
          "internalType": "uint256",
          "name": "tokenId",
          "type": "uint256"
        }
      ],
      "name": "getApproved",
      "outputs": [
        {
          "internalType": "address",
          "name": "",
          "type": "address"
        }
      ],
      "stateMutability": "view",
      "type": "function",
      "constant": true
    },
    {
      "inputs": [
        {
          "internalType": "address",
          "name": "owner",
          "type": "address"
        },
        {
          "internalType": "address",
          "name": "operator",
          "type": "address"
        }
      ],
      "name": "isApprovedForAll",
      "outputs": [
        {
          "internalType": "bool",
          "name": "",
          "type": "bool"
        }
      ],
      "stateMutability": "view",
      "type": "function",
      "constant": true
    },
    {
      "inputs": [],
      "name": "name",
      "outputs": [
        {
          "internalType": "string",
          "name": "",
          "type": "string"
        }
      ],
      "stateMutability": "view",
      "type": "function",
      "constant": true
    },
    {
      "inputs": [
        {
          "internalType": "uint256",
          "name": "tokenId",
          "type": "uint256"
        }
      ],
      "name": "ownerOf",
      "outputs": [
        {
          "internalType": "address",
          "name": "",
          "type": "address"
        }
      ],
      "stateMutability": "view",
      "type": "function",
      "constant": true
    },
    {
      "inputs": [
        {
          "internalType": "address",
          "name": "from",
          "type": "address"
        },
        {
          "internalType": "address",
          "name": "to",
          "type": "address"
        },
        {
          "internalType": "uint256",
          "name": "tokenId",
          "type": "uint256"
        }
      ],
      "name": "safeTransferFrom",
      "outputs": [],
      "stateMutability": "nonpayable",
      "type": "function"
    },
    {
      "inputs": [
        {
          "internalType": "address",
          "name": "from",
          "type": "address"
        },
        {
          "internalType": "address",
          "name": "to",
          "type": "address"
        },
        {
          "internalType": "uint256",
          "name": "tokenId",
          "type": "uint256"
        },
        {
          "internalType": "bytes",
          "name": "_data",
          "type": "bytes"
        }
      ],
      "name": "safeTransferFrom",
      "outputs": [],
      "stateMutability": "nonpayable",
      "type": "function"
    },
    {
      "inputs": [
        {
          "internalType": "address",
          "name": "operator",
          "type": "address"
        },
        {
          "internalType": "bool",
          "name": "approved",
          "type": "bool"
        }
      ],
      "name": "setApprovalForAll",
      "outputs": [],
      "stateMutability": "nonpayable",
      "type": "function"
    },
    {
      "inputs": [
        {
          "internalType": "bytes4",
          "name": "interfaceId",
          "type": "bytes4"
        }
      ],
      "name": "supportsInterface",
      "outputs": [
        {
          "internalType": "bool",
          "name": "",
          "type": "bool"
        }
      ],
      "stateMutability": "view",
      "type": "function",
      "constant": true
    },
    {
      "inputs": [],
      "name": "symbol",
      "outputs": [
        {
          "internalType": "string",
          "name": "",
          "type": "string"
        }
      ],
      "stateMutability": "view",
      "type": "function",
      "constant": true
    },
    {
      "inputs": [
        {
          "internalType": "uint256",
          "name": "tokenId",
          "type": "uint256"
        }
      ],
      "name": "tokenURI",
      "outputs": [
        {
          "internalType": "string",
          "name": "",
          "type": "string"
        }
      ],
      "stateMutability": "view",
      "type": "function",
      "constant": true
    },
    {
      "inputs": [
        {
          "internalType": "address",
          "name": "from",
          "type": "address"
        },
        {
          "internalType": "address",
          "name": "to",
          "type": "address"
        },
        {
          "internalType": "uint256",
          "name": "tokenId",
          "type": "uint256"
        }
      ],
      "name": "transferFrom",
      "outputs": [],
      "stateMutability": "nonpayable",
      "type": "function"
    },
    {
      "inputs": [
        {
          "internalType": "address",
          "name": "",
          "type": "address"
        }
      ],
      "name": "walmartTransections",
      "outputs": [
        {
          "internalType": "string",
          "name": "dateOfTransection",
          "type": "string"
        },
        {
          "internalType": "string",
          "name": "transectionPerformedBy",
          "type": "string"
        },
        {
          "internalType": "uint256",
          "name": "totalAmountPayed",
          "type": "uint256"
        },
        {
          "components": [
            {
              "internalType": "string",
              "name": "productName",
              "type": "string"
            },
            {
              "internalType": "string",
              "name": "productID",
              "type": "string"
            },
            {
              "internalType": "string",
              "name": "uri",
              "type": "string"
            },
            {
              "components": [
                {
                  "internalType": "string",
                  "name": "storeType",
                  "type": "string"
                },
                {
                  "internalType": "string",
                  "name": "storeName",
                  "type": "string"
                },
                {
                  "internalType": "string",
                  "name": "storeId",
                  "type": "string"
                }
              ],
              "internalType": "struct WalmartNFT.Store",
              "name": "store",
              "type": "tuple"
            }
          ],
          "internalType": "struct WalmartNFT.StoreProduct",
          "name": "storeProduct",
          "type": "tuple"
        }
      ],
      "stateMutability": "view",
      "type": "function",
      "constant": true
    },
    {
      "inputs": [
        {
          "internalType": "address",
          "name": "player",
          "type": "address"
        },
        {
          "internalType": "string",
          "name": "tokenURI",
          "type": "string"
        }
      ],
      "name": "awardItem",
      "outputs": [
        {
          "internalType": "uint256",
          "name": "",
          "type": "uint256"
        }
      ],
      "stateMutability": "nonpayable",
      "type": "function"
    },
    {
      "inputs": [
        {
          "internalType": "string",
          "name": "dateOfTransection",
          "type": "string"
        },
        {
          "internalType": "string",
          "name": "transectionPerformedBy",
          "type": "string"
        },
        {
          "internalType": "uint256",
          "name": "totalAmountPayed",
          "type": "uint256"
        },
        {
          "internalType": "uint256",
          "name": "productAmount",
          "type": "uint256"
        },
        {
          "internalType": "string",
          "name": "productName",
          "type": "string"
        },
        {
          "internalType": "string",
          "name": "productID",
          "type": "string"
        },
        {
          "internalType": "string",
          "name": "productURI",
          "type": "string"
        },
        {
          "internalType": "string",
          "name": "storeType",
          "type": "string"
        },
        {
          "internalType": "string",
          "name": "storeName",
          "type": "string"
        },
        {
          "internalType": "string",
          "name": "storeId",
          "type": "string"
        }
      ],
      "name": "WalmartPaymentInNFT",
      "outputs": [],
      "stateMutability": "nonpayable",
      "type": "function"
    }
  ],
  "bytecode": "0x608060405260006008553480156200001657600080fd5b506040518060400160405280600a81526020017f57616c6d6172744e4654000000000000000000000000000000000000000000008152506040518060400160405280600381526020017f4e4654000000000000000000000000000000000000000000000000000000000081525081600090805190602001906200009b929190620000bd565b508060019080519060200190620000b4929190620000bd565b505050620001d2565b828054620000cb906200016d565b90600052602060002090601f016020900481019282620000ef57600085556200013b565b82601f106200010a57805160ff19168380011785556200013b565b828001600101855582156200013b579182015b828111156200013a5782518255916020019190600101906200011d565b5b5090506200014a91906200014e565b5090565b5b80821115620001695760008160009055506001016200014f565b5090565b600060028204905060018216806200018657607f821691505b602082108114156200019d576200019c620001a3565b5b50919050565b7f4e487b7100000000000000000000000000000000000000000000000000000000600052602260045260246000fd5b61368880620001e26000396000f3fe608060405234801561001057600080fd5b506004361061011d576000357c0100000000000000000000000000000000000000000000000000000000900480636352211e116100b4578063b88d4fde11610083578063b88d4fde146102dd578063c87b56dd146102f9578063cf37834314610329578063e985e9c5146103595761011d565b80636352211e1461024357806370a082311461027357806395d89b41146102a3578063a22cb465146102c15761011d565b806323b872dd116100f057806323b872dd146101bc57806342842e0e146101d85780634417265b146101f4578063513ce171146102105761011d565b806301ffc9a71461012257806306fdde0314610152578063081812fc14610170578063095ea7b3146101a0575b600080fd5b61013c60048036038101906101379190612420565b610389565b6040516101499190612ad0565b60405180910390f35b61015a61046b565b6040516101679190612aeb565b60405180910390f35b61018a6004803603810190610185919061260d565b6104fd565b6040516101979190612a69565b60405180910390f35b6101ba60048036038101906101b591906123e4565b610582565b005b6101d660048036038101906101d1919061228a565b61069a565b005b6101f260048036038101906101ed919061228a565b6106fa565b005b61020e60048036038101906102099190612472565b61071a565b005b61022a60048036038101906102259190612225565b610951565b60405161023a9493929190612b0d565b60405180910390f35b61025d6004803603810190610258919061260d565b610e1b565b60405161026a9190612a69565b60405180910390f35b61028d60048036038101906102889190612225565b610ecd565b60405161029a9190612d67565b60405180910390f35b6102ab610f85565b6040516102b89190612aeb565b60405180910390f35b6102db60048036038101906102d69190612354565b611017565b005b6102f760048036038101906102f291906122d9565b61102d565b005b610313600480360381019061030e919061260d565b61108f565b6040516103209190612aeb565b60405180910390f35b610343600480360381019061033e9190612390565b6111e1565b6040516103509190612d67565b60405180910390f35b610373600480360381019061036e919061224e565b611218565b6040516103809190612ad0565b60405180910390f35b60007f80ac58cd000000000000000000000000000000000000000000000000000000007bffffffffffffffffffffffffffffffffffffffffffffffffffffffff1916827bffffffffffffffffffffffffffffffffffffffffffffffffffffffff1916148061045457507f5b5e139f000000000000000000000000000000000000000000000000000000007bffffffffffffffffffffffffffffffffffffffffffffffffffffffff1916827bffffffffffffffffffffffffffffffffffffffffffffffffffffffff1916145b806104645750610463826112ac565b5b9050919050565b60606000805461047a90612fce565b80601f01602080910402602001604051908101604052809291908181526020018280546104a690612fce565b80156104f35780601f106104c8576101008083540402835291602001916104f3565b820191906000526020600020905b8154815290600101906020018083116104d657829003601f168201915b5050505050905090565b600061050882611316565b610547576040517f08c379a000000000000000000000000000000000000000000000000000000000815260040161053e90612ce7565b60405180910390fd5b6004600083815260200190815260200160002060009054906101000a900473ffffffffffffffffffffffffffffffffffffffff169050919050565b600061058d82610e1b565b90508073ffffffffffffffffffffffffffffffffffffffff168373ffffffffffffffffffffffffffffffffffffffff1614156105fe576040517f08c379a00000000000000000000000000000000000000000000000000000000081526004016105f590612d27565b60405180910390fd5b8073ffffffffffffffffffffffffffffffffffffffff1661061d611382565b73ffffffffffffffffffffffffffffffffffffffff16148061064c575061064b81610646611382565b611218565b5b61068b576040517f08c379a000000000000000000000000000000000000000000000000000000000815260040161068290612c27565b60405180910390fd5b610695838361138a565b505050565b6106ab6106a5611382565b82611443565b6106ea576040517f08c379a00000000000000000000000000000000000000000000000000000000081526004016106e190612d47565b60405180910390fd5b6106f5838383611521565b505050565b6107158383836040518060200160405280600081525061102d565b505050565b87871461072657600080fd5b600086511161073457600080fd5b600085511161074257600080fd5b600082511161075057600080fd5b600081511161075e57600080fd5b60008a511161076c57600080fd5b600089511161077a57600080fd5b6000604051806060016040528085815260200184815260200183815250905060006040518060800160405280898152602001888152602001878152602001838152509050600060405180608001604052808e81526020018d81526020018c815260200183815250905080600960003373ffffffffffffffffffffffffffffffffffffffff1673ffffffffffffffffffffffffffffffffffffffff168152602001908152602001600020600082015181600001908051906020019061083f929190612049565b50602082015181600101908051906020019061085c929190612049565b5060408201518160020155606082015181600301600082015181600001908051906020019061088c929190612049565b5060208201518160010190805190602001906108a9929190612049565b5060408201518160020190805190602001906108c6929190612049565b5060608201518160030160008201518160000190805190602001906108ec929190612049565b506020820151816001019080519060200190610909929190612049565b506040820151816002019080519060200190610926929190612049565b50505050509050508a60085461093c9190612e5d565b60088190555050505050505050505050505050565b600960205280600052604060002060009150905080600001805461097490612fce565b80601f01602080910402602001604051908101604052809291908181526020018280546109a090612fce565b80156109ed5780601f106109c2576101008083540402835291602001916109ed565b820191906000526020600020905b8154815290600101906020018083116109d057829003601f168201915b505050505090806001018054610a0290612fce565b80601f0160208091040260200160405190810160405280929190818152602001828054610a2e90612fce565b8015610a7b5780601f10610a5057610100808354040283529160200191610a7b565b820191906000526020600020905b815481529060010190602001808311610a5e57829003601f168201915b50505050509080600201549080600301604051806080016040529081600082018054610aa690612fce565b80601f0160208091040260200160405190810160405280929190818152602001828054610ad290612fce565b8015610b1f5780601f10610af457610100808354040283529160200191610b1f565b820191906000526020600020905b815481529060010190602001808311610b0257829003601f168201915b50505050508152602001600182018054610b3890612fce565b80601f0160208091040260200160405190810160405280929190818152602001828054610b6490612fce565b8015610bb15780601f10610b8657610100808354040283529160200191610bb1565b820191906000526020600020905b815481529060010190602001808311610b9457829003601f168201915b50505050508152602001600282018054610bca90612fce565b80601f0160208091040260200160405190810160405280929190818152602001828054610bf690612fce565b8015610c435780601f10610c1857610100808354040283529160200191610c43565b820191906000526020600020905b815481529060010190602001808311610c2657829003601f168201915b5050505050815260200160038201604051806060016040529081600082018054610c6c90612fce565b80601f0160208091040260200160405190810160405280929190818152602001828054610c9890612fce565b8015610ce55780601f10610cba57610100808354040283529160200191610ce5565b820191906000526020600020905b815481529060010190602001808311610cc857829003601f168201915b50505050508152602001600182018054610cfe90612fce565b80601f0160208091040260200160405190810160405280929190818152602001828054610d2a90612fce565b8015610d775780601f10610d4c57610100808354040283529160200191610d77565b820191906000526020600020905b815481529060010190602001808311610d5a57829003601f168201915b50505050508152602001600282018054610d9090612fce565b80601f0160208091040260200160405190810160405280929190818152602001828054610dbc90612fce565b8015610e095780601f10610dde57610100808354040283529160200191610e09565b820191906000526020600020905b815481529060010190602001808311610dec57829003601f168201915b50505050508152505081525050905084565b6000806002600084815260200190815260200160002060009054906101000a900473ffffffffffffffffffffffffffffffffffffffff169050600073ffffffffffffffffffffffffffffffffffffffff168173ffffffffffffffffffffffffffffffffffffffff161415610ec4576040517f08c379a0000000000000000000000000000000000000000000000000000000008152600401610ebb90612c67565b60405180910390fd5b80915050919050565b60008073ffffffffffffffffffffffffffffffffffffffff168273ffffffffffffffffffffffffffffffffffffffff161415610f3e576040517f08c379a0000000000000000000000000000000000000000000000000000000008152600401610f3590612c47565b60405180910390fd5b600360008373ffffffffffffffffffffffffffffffffffffffff1673ffffffffffffffffffffffffffffffffffffffff168152602001908152602001600020549050919050565b606060018054610f9490612fce565b80601f0160208091040260200160405190810160405280929190818152602001828054610fc090612fce565b801561100d5780601f10610fe25761010080835404028352916020019161100d565b820191906000526020600020905b815481529060010190602001808311610ff057829003601f168201915b5050505050905090565b611029611022611382565b8383611788565b5050565b61103e611038611382565b83611443565b61107d576040517f08c379a000000000000000000000000000000000000000000000000000000000815260040161107490612d47565b60405180910390fd5b611089848484846118f5565b50505050565b606061109a82611316565b6110d9576040517f08c379a00000000000000000000000000000000000000000000000000000000081526004016110d090612cc7565b60405180910390fd5b60006006600084815260200190815260200160002080546110f990612fce565b80601f016020809104026020016040519081016040528092919081815260200182805461112590612fce565b80156111725780601f1061114757610100808354040283529160200191611172565b820191906000526020600020905b81548152906001019060200180831161115557829003601f168201915b505050505090506000611183611951565b90506000815114156111995781925050506111dc565b6000825111156111ce5780826040516020016111b6929190612a45565b604051602081830303815290604052925050506111dc565b6111d784611968565b925050505b919050565b6000806111ee6007611a0f565b90506111fa8482611a1d565b6112048184611bf7565b61120e6007611c6b565b8091505092915050565b6000600560008473ffffffffffffffffffffffffffffffffffffffff1673ffffffffffffffffffffffffffffffffffffffff16815260200190815260200160002060008373ffffffffffffffffffffffffffffffffffffffff1673ffffffffffffffffffffffffffffffffffffffff16815260200190815260200160002060009054906101000a900460ff16905092915050565b60007f01ffc9a7000000000000000000000000000000000000000000000000000000007bffffffffffffffffffffffffffffffffffffffffffffffffffffffff1916827bffffffffffffffffffffffffffffffffffffffffffffffffffffffff1916149050919050565b60008073ffffffffffffffffffffffffffffffffffffffff166002600084815260200190815260200160002060009054906101000a900473ffffffffffffffffffffffffffffffffffffffff1673ffffffffffffffffffffffffffffffffffffffff1614159050919050565b600033905090565b816004600083815260200190815260200160002060006101000a81548173ffffffffffffffffffffffffffffffffffffffff021916908373ffffffffffffffffffffffffffffffffffffffff160217905550808273ffffffffffffffffffffffffffffffffffffffff166113fd83610e1b565b73ffffffffffffffffffffffffffffffffffffffff167f8c5be1e5ebec7d5bd14f71427d1e84f3dd0314c0f7b2291e5b200ac8c7c3b92560405160405180910390a45050565b600061144e82611316565b61148d576040517f08c379a000000000000000000000000000000000000000000000000000000000815260040161148490612c07565b60405180910390fd5b600061149883610e1b565b90508073ffffffffffffffffffffffffffffffffffffffff168473ffffffffffffffffffffffffffffffffffffffff1614806114da57506114d98185611218565b5b8061151857508373ffffffffffffffffffffffffffffffffffffffff16611500846104fd565b73ffffffffffffffffffffffffffffffffffffffff16145b91505092915050565b8273ffffffffffffffffffffffffffffffffffffffff1661154182610e1b565b73ffffffffffffffffffffffffffffffffffffffff1614611597576040517f08c379a000000000000000000000000000000000000000000000000000000000815260040161158e90612b87565b60405180910390fd5b600073ffffffffffffffffffffffffffffffffffffffff168273ffffffffffffffffffffffffffffffffffffffff161415611607576040517f08c379a00000000000000000000000000000000000000000000000000000000081526004016115fe90612bc7565b60405180910390fd5b611612838383611c81565b61161d60008261138a565b6001600360008573ffffffffffffffffffffffffffffffffffffffff1673ffffffffffffffffffffffffffffffffffffffff168152602001908152602001600020600082825461166d9190612ee4565b925050819055506001600360008473ffffffffffffffffffffffffffffffffffffffff1673ffffffffffffffffffffffffffffffffffffffff16815260200190815260200160002060008282546116c49190612e5d565b92505081905550816002600083815260200190815260200160002060006101000a81548173ffffffffffffffffffffffffffffffffffffffff021916908373ffffffffffffffffffffffffffffffffffffffff160217905550808273ffffffffffffffffffffffffffffffffffffffff168473ffffffffffffffffffffffffffffffffffffffff167fddf252ad1be2c89b69c2b068fc378daa952ba7f163c4a11628f55a4df523b3ef60405160405180910390a4611783838383611c86565b505050565b8173ffffffffffffffffffffffffffffffffffffffff168373ffffffffffffffffffffffffffffffffffffffff1614156117f7576040517f08c379a00000000000000000000000000000000000000000000000000000000081526004016117ee90612be7565b60405180910390fd5b80600560008573ffffffffffffffffffffffffffffffffffffffff1673ffffffffffffffffffffffffffffffffffffffff16815260200190815260200160002060008473ffffffffffffffffffffffffffffffffffffffff1673ffffffffffffffffffffffffffffffffffffffff16815260200190815260200160002060006101000a81548160ff0219169083151502179055508173ffffffffffffffffffffffffffffffffffffffff168373ffffffffffffffffffffffffffffffffffffffff167f17307eab39ab6107e8899845ad3d59bd9653f200f220920489ca2b5937696c31836040516118e89190612ad0565b60405180910390a3505050565b611900848484611521565b61190c84848484611c8b565b61194b576040517f08c379a000000000000000000000000000000000000000000000000000000000815260040161194290612b67565b60405180910390fd5b50505050565b606060405180602001604052806000815250905090565b606061197382611316565b6119b2576040517f08c379a00000000000000000000000000000000000000000000000000000000081526004016119a990612d07565b60405180910390fd5b60006119bc611951565b905060008151116119dc5760405180602001604052806000815250611a07565b806119e684611e5a565b6040516020016119f7929190612a45565b6040516020818303038152906040525b915050919050565b600081600001549050919050565b600073ffffffffffffffffffffffffffffffffffffffff168273ffffffffffffffffffffffffffffffffffffffff161415611a8d576040517f08c379a0000000000000000000000000000000000000000000000000000000008152600401611a8490612ca7565b60405180910390fd5b611a9681611316565b15611ad6576040517f08c379a0000000000000000000000000000000000000000000000000000000008152600401611acd90612ba7565b60405180910390fd5b611ae260008383611c81565b6001600360008473ffffffffffffffffffffffffffffffffffffffff1673ffffffffffffffffffffffffffffffffffffffff1681526020019081526020016000206000828254611b329190612e5d565b92505081905550816002600083815260200190815260200160002060006101000a81548173ffffffffffffffffffffffffffffffffffffffff021916908373ffffffffffffffffffffffffffffffffffffffff160217905550808273ffffffffffffffffffffffffffffffffffffffff16600073ffffffffffffffffffffffffffffffffffffffff167fddf252ad1be2c89b69c2b068fc378daa952ba7f163c4a11628f55a4df523b3ef60405160405180910390a4611bf360008383611c86565b5050565b611c0082611316565b611c3f576040517f08c379a0000000000000000000000000000000000000000000000000000000008152600401611c3690612c87565b60405180910390fd5b80600660008481526020019081526020016000209080519060200190611c66929190612049565b505050565b6001816000016000828254019250508190555050565b505050565b505050565b6000611cac8473ffffffffffffffffffffffffffffffffffffffff16612026565b15611e4d578373ffffffffffffffffffffffffffffffffffffffff1663150b7a02611cd5611382565b8786866040518563ffffffff167c0100000000000000000000000000000000000000000000000000000000028152600401611d139493929190612a84565b602060405180830381600087803b158015611d2d57600080fd5b505af1925050508015611d5e57506040513d601f19601f82011682018060405250810190611d5b9190612449565b60015b611de1573d8060008114611d8e576040519150601f19603f3d011682016040523d82523d6000602084013e611d93565b606091505b50600081511415611dd9576040517f08c379a0000000000000000000000000000000000000000000000000000000008152600401611dd090612b67565b60405180910390fd5b805181602001fd5b63150b7a027c0100000000000000000000000000000000000000000000000000000000027bffffffffffffffffffffffffffffffffffffffffffffffffffffffff1916817bffffffffffffffffffffffffffffffffffffffffffffffffffffffff191614915050611e52565b600190505b949350505050565b60606000821415611ea2576040518060400160405280600181526020017f30000000000000000000000000000000000000000000000000000000000000008152509050612021565b600082905060005b60008214611ed4578080611ebd90613031565b915050600a82611ecd9190612eb3565b9150611eaa565b60008167ffffffffffffffff811115611f16577f4e487b7100000000000000000000000000000000000000000000000000000000600052604160045260246000fd5b6040519080825280601f01601f191660200182016040528015611f485781602001600182028036833780820191505090505b5090505b6000851461201a57600182611f619190612ee4565b9150600a85611f70919061307a565b6030611f7c9190612e5d565b7f010000000000000000000000000000000000000000000000000000000000000002818381518110611fd7577f4e487b7100000000000000000000000000000000000000000000000000000000600052603260045260246000fd5b60200101907effffffffffffffffffffffffffffffffffffffffffffffffffffffffffffff1916908160001a905350600a856120139190612eb3565b9450611f4c565b8093505050505b919050565b6000808273ffffffffffffffffffffffffffffffffffffffff163b119050919050565b82805461205590612fce565b90600052602060002090601f01602090048101928261207757600085556120be565b82601f1061209057805160ff19168380011785556120be565b828001600101855582156120be579182015b828111156120bd5782518255916020019190600101906120a2565b5b5090506120cb91906120cf565b5090565b5b808211156120e85760008160009055506001016120d0565b5090565b60006120ff6120fa84612da7565b612d82565b90508281526020810184848401111561211757600080fd5b612122848285612f8c565b509392505050565b600061213d61213884612dd8565b612d82565b90508281526020810184848401111561215557600080fd5b612160848285612f8c565b509392505050565b600081359050612177816135f6565b92915050565b60008135905061218c8161360d565b92915050565b6000813590506121a181613624565b92915050565b6000815190506121b681613624565b92915050565b600082601f8301126121cd57600080fd5b81356121dd8482602086016120ec565b91505092915050565b600082601f8301126121f757600080fd5b813561220784826020860161212a565b91505092915050565b60008135905061221f8161363b565b92915050565b60006020828403121561223757600080fd5b600061224584828501612168565b91505092915050565b6000806040838503121561226157600080fd5b600061226f85828601612168565b925050602061228085828601612168565b9150509250929050565b60008060006060848603121561229f57600080fd5b60006122ad86828701612168565b93505060206122be86828701612168565b92505060406122cf86828701612210565b9150509250925092565b600080600080608085870312156122ef57600080fd5b60006122fd87828801612168565b945050602061230e87828801612168565b935050604061231f87828801612210565b925050606085013567ffffffffffffffff81111561233c57600080fd5b612348878288016121bc565b91505092959194509250565b6000806040838503121561236757600080fd5b600061237585828601612168565b92505060206123868582860161217d565b9150509250929050565b600080604083850312156123a357600080fd5b60006123b185828601612168565b925050602083013567ffffffffffffffff8111156123ce57600080fd5b6123da858286016121e6565b9150509250929050565b600080604083850312156123f757600080fd5b600061240585828601612168565b925050602061241685828601612210565b9150509250929050565b60006020828403121561243257600080fd5b600061244084828501612192565b91505092915050565b60006020828403121561245b57600080fd5b6000612469848285016121a7565b91505092915050565b6000806000806000806000806000806101408b8d03121561249257600080fd5b60008b013567ffffffffffffffff8111156124ac57600080fd5b6124b88d828e016121e6565b9a505060208b013567ffffffffffffffff8111156124d557600080fd5b6124e18d828e016121e6565b99505060406124f28d828e01612210565b98505060606125038d828e01612210565b97505060808b013567ffffffffffffffff81111561252057600080fd5b61252c8d828e016121e6565b96505060a08b013567ffffffffffffffff81111561254957600080fd5b6125558d828e016121e6565b95505060c08b013567ffffffffffffffff81111561257257600080fd5b61257e8d828e016121e6565b94505060e08b013567ffffffffffffffff81111561259b57600080fd5b6125a78d828e016121e6565b9350506101008b013567ffffffffffffffff8111156125c557600080fd5b6125d18d828e016121e6565b9250506101208b013567ffffffffffffffff8111156125ef57600080fd5b6125fb8d828e016121e6565b9150509295989b9194979a5092959850565b60006020828403121561261f57600080fd5b600061262d84828501612210565b91505092915050565b61263f81612f18565b82525050565b61264e81612f2a565b82525050565b600061265f82612e09565b6126698185612e1f565b9350612679818560208601612f9b565b61268281613167565b840191505092915050565b600061269882612e14565b6126a28185612e30565b93506126b2818560208601612f9b565b6126bb81613167565b840191505092915050565b60006126d182612e14565b6126db8185612e41565b93506126eb818560208601612f9b565b6126f481613167565b840191505092915050565b600061270a82612e14565b6127148185612e52565b9350612724818560208601612f9b565b80840191505092915050565b600061273d603283612e41565b915061274882613178565b604082019050919050565b6000612760602583612e41565b915061276b826131c7565b604082019050919050565b6000612783601c83612e41565b915061278e82613216565b602082019050919050565b60006127a6602483612e41565b91506127b18261323f565b604082019050919050565b60006127c9601983612e41565b91506127d48261328e565b602082019050919050565b60006127ec602c83612e41565b91506127f7826132b7565b604082019050919050565b600061280f603883612e41565b915061281a82613306565b604082019050919050565b6000612832602a83612e41565b915061283d82613355565b604082019050919050565b6000612855602983612e41565b9150612860826133a4565b604082019050919050565b6000612878602e83612e41565b9150612883826133f3565b604082019050919050565b600061289b602083612e41565b91506128a682613442565b602082019050919050565b60006128be603183612e41565b91506128c98261346b565b604082019050919050565b60006128e1602c83612e41565b91506128ec826134ba565b604082019050919050565b6000612904602f83612e41565b915061290f82613509565b604082019050919050565b6000612927602183612e41565b915061293282613558565b604082019050919050565b600061294a603183612e41565b9150612955826135a7565b604082019050919050565b6000608083016000830151848203600086015261297d828261268d565b91505060208301518482036020860152612997828261268d565b915050604083015184820360408601526129b1828261268d565b915050606083015184820360608601526129cb82826129d8565b9150508091505092915050565b600060608301600083015184820360008601526129f5828261268d565b91505060208301518482036020860152612a0f828261268d565b91505060408301518482036040860152612a29828261268d565b9150508091505092915050565b612a3f81612f82565b82525050565b6000612a5182856126ff565b9150612a5d82846126ff565b91508190509392505050565b6000602082019050612a7e6000830184612636565b92915050565b6000608082019050612a996000830187612636565b612aa66020830186612636565b612ab36040830185612a36565b8181036060830152612ac58184612654565b905095945050505050565b6000602082019050612ae56000830184612645565b92915050565b60006020820190508181036000830152612b0581846126c6565b905092915050565b60006080820190508181036000830152612b2781876126c6565b90508181036020830152612b3b81866126c6565b9050612b4a6040830185612a36565b8181036060830152612b5c8184612960565b905095945050505050565b60006020820190508181036000830152612b8081612730565b9050919050565b60006020820190508181036000830152612ba081612753565b9050919050565b60006020820190508181036000830152612bc081612776565b9050919050565b60006020820190508181036000830152612be081612799565b9050919050565b60006020820190508181036000830152612c00816127bc565b9050919050565b60006020820190508181036000830152612c20816127df565b9050919050565b60006020820190508181036000830152612c4081612802565b9050919050565b60006020820190508181036000830152612c6081612825565b9050919050565b60006020820190508181036000830152612c8081612848565b9050919050565b60006020820190508181036000830152612ca08161286b565b9050919050565b60006020820190508181036000830152612cc08161288e565b9050919050565b60006020820190508181036000830152612ce0816128b1565b9050919050565b60006020820190508181036000830152612d00816128d4565b9050919050565b60006020820190508181036000830152612d20816128f7565b9050919050565b60006020820190508181036000830152612d408161291a565b9050919050565b60006020820190508181036000830152612d608161293d565b9050919050565b6000602082019050612d7c6000830184612a36565b92915050565b6000612d8c612d9d565b9050612d988282613000565b919050565b6000604051905090565b600067ffffffffffffffff821115612dc257612dc1613138565b5b612dcb82613167565b9050602081019050919050565b600067ffffffffffffffff821115612df357612df2613138565b5b612dfc82613167565b9050602081019050919050565b600081519050919050565b600081519050919050565b600082825260208201905092915050565b600082825260208201905092915050565b600082825260208201905092915050565b600081905092915050565b6000612e6882612f82565b9150612e7383612f82565b9250827fffffffffffffffffffffffffffffffffffffffffffffffffffffffffffffffff03821115612ea857612ea76130ab565b5b828201905092915050565b6000612ebe82612f82565b9150612ec983612f82565b925082612ed957612ed86130da565b5b828204905092915050565b6000612eef82612f82565b9150612efa83612f82565b925082821015612f0d57612f0c6130ab565b5b828203905092915050565b6000612f2382612f62565b9050919050565b60008115159050919050565b60007fffffffff0000000000000000000000000000000000000000000000000000000082169050919050565b600073ffffffffffffffffffffffffffffffffffffffff82169050919050565b6000819050919050565b82818337600083830152505050565b60005b83811015612fb9578082015181840152602081019050612f9e565b83811115612fc8576000848401525b50505050565b60006002820490506001821680612fe657607f821691505b60208210811415612ffa57612ff9613109565b5b50919050565b61300982613167565b810181811067ffffffffffffffff8211171561302857613027613138565b5b80604052505050565b600061303c82612f82565b91507fffffffffffffffffffffffffffffffffffffffffffffffffffffffffffffffff82141561306f5761306e6130ab565b5b600182019050919050565b600061308582612f82565b915061309083612f82565b9250826130a05761309f6130da565b5b828206905092915050565b7f4e487b7100000000000000000000000000000000000000000000000000000000600052601160045260246000fd5b7f4e487b7100000000000000000000000000000000000000000000000000000000600052601260045260246000fd5b7f4e487b7100000000000000000000000000000000000000000000000000000000600052602260045260246000fd5b7f4e487b7100000000000000000000000000000000000000000000000000000000600052604160045260246000fd5b6000601f19601f8301169050919050565b7f4552433732313a207472616e7366657220746f206e6f6e20455243373231526560008201527f63656976657220696d706c656d656e7465720000000000000000000000000000602082015250565b7f4552433732313a207472616e736665722066726f6d20696e636f72726563742060008201527f6f776e6572000000000000000000000000000000000000000000000000000000602082015250565b7f4552433732313a20746f6b656e20616c7265616479206d696e74656400000000600082015250565b7f4552433732313a207472616e7366657220746f20746865207a65726f2061646460008201527f7265737300000000000000000000000000000000000000000000000000000000602082015250565b7f4552433732313a20617070726f766520746f2063616c6c657200000000000000600082015250565b7f4552433732313a206f70657261746f7220717565727920666f72206e6f6e657860008201527f697374656e7420746f6b656e0000000000000000000000000000000000000000602082015250565b7f4552433732313a20617070726f76652063616c6c6572206973206e6f74206f7760008201527f6e6572206e6f7220617070726f76656420666f7220616c6c0000000000000000602082015250565b7f4552433732313a2062616c616e636520717565727920666f7220746865207a6560008201527f726f206164647265737300000000000000000000000000000000000000000000602082015250565b7f4552433732313a206f776e657220717565727920666f72206e6f6e657869737460008201527f656e7420746f6b656e0000000000000000000000000000000000000000000000602082015250565b7f45524337323155524953746f726167653a2055524920736574206f66206e6f6e60008201527f6578697374656e7420746f6b656e000000000000000000000000000000000000602082015250565b7f4552433732313a206d696e7420746f20746865207a65726f2061646472657373600082015250565b7f45524337323155524953746f726167653a2055524920717565727920666f722060008201527f6e6f6e6578697374656e7420746f6b656e000000000000000000000000000000602082015250565b7f4552433732313a20617070726f76656420717565727920666f72206e6f6e657860008201527f697374656e7420746f6b656e0000000000000000000000000000000000000000602082015250565b7f4552433732314d657461646174613a2055524920717565727920666f72206e6f60008201527f6e6578697374656e7420746f6b656e0000000000000000000000000000000000602082015250565b7f4552433732313a20617070726f76616c20746f2063757272656e74206f776e6560008201527f7200000000000000000000000000000000000000000000000000000000000000602082015250565b7f4552433732313a207472616e736665722063616c6c6572206973206e6f74206f60008201527f776e6572206e6f7220617070726f766564000000000000000000000000000000602082015250565b6135ff81612f18565b811461360a57600080fd5b50565b61361681612f2a565b811461362157600080fd5b50565b61362d81612f36565b811461363857600080fd5b50565b61364481612f82565b811461364f57600080fd5b5056fea2646970667358221220eea1e04e63f4e370b53b8ec7ab92f10d267eebb9473cf9dc1ac8230d747f4a4064736f6c63430008030033",
  "immutableReferences": {},
  "source": "// contracts/GameItem.sol\r\n// SPDX-License-Identifier: MIT\r\npragma solidity >=0.4.22 <0.9.0;\r\n\r\nimport \"@openzeppelin/contracts/utils/Counters.sol\";\r\nimport \"@openzeppelin/contracts/token/ERC721/extensions/ERC721URIStorage.sol\";\r\n\r\ncontract WalmartNFT is ERC721URIStorage {\r\n    using Counters for Counters.Counter;\r\n    Counters.Counter private _tokenIds;\r\n\r\n    constructor() ERC721(\"WalmartNFT\", \"NFT\") {}\r\n\r\n    function awardItem(address player, string memory tokenURI)\r\n        public\r\n        returns (uint256)\r\n    {\r\n        uint256 newItemId = _tokenIds.current();\r\n        _mint(player, newItemId);\r\n        _setTokenURI(newItemId, tokenURI);\r\n\r\n        _tokenIds.increment();\r\n        return newItemId;\r\n    }\r\n\r\n    uint256 totalWalmartEarning = 0;\r\n    struct Store {\r\n        string storeType;\r\n        string storeName;\r\n        string storeId;\r\n    }\r\n    struct StoreProduct {\r\n        string productName;\r\n        string productID;\r\n        string uri;\r\n        Store store;\r\n    }\r\n    struct Transection {\r\n        string dateOfTransection;\r\n        string transectionPerformedBy;\r\n        uint256 totalAmountPayed;\r\n        StoreProduct storeProduct;\r\n    }\r\n    mapping(address => Transection) public walmartTransections;\r\n\r\n    function WalmartPaymentInNFT(\r\n        string memory dateOfTransection,\r\n        string memory transectionPerformedBy,\r\n        uint256 totalAmountPayed,\r\n        uint256 productAmount,\r\n        string memory productName,\r\n        string memory productID,\r\n        string memory productURI,\r\n        string memory storeType,\r\n        string memory storeName,\r\n        string memory storeId\r\n    ) public {\r\n        // Validate Transection :: =>\r\n        //    1) validate Amount payed\r\n        //    2) productName should not be empty\r\n        //    3) productID should not be empty\r\n        //    4) storeName should not be empty\r\n        //    5) storeId should not be empty\r\n        //    6) dateOfTransection should not be empty\r\n        //    7) transectionPerformedBy should not be empty\r\n\r\n        require(productAmount == totalAmountPayed);\r\n        require(bytes(productName).length > 0);\r\n        require(bytes(productID).length > 0);\r\n        require(bytes(storeName).length > 0);\r\n        require(bytes(storeId).length > 0);\r\n        require(bytes(dateOfTransection).length > 0);\r\n        require(bytes(transectionPerformedBy).length > 0);\r\n\r\n        // Store , Store Product , Transection objects ::=>\r\n        Store memory store = Store(storeType, storeName, storeId);\r\n        StoreProduct memory storeProduct = StoreProduct(\r\n            productName,\r\n            productID,\r\n            productURI,\r\n            store\r\n        );\r\n        Transection memory transection = Transection(\r\n            dateOfTransection,\r\n            transectionPerformedBy,\r\n            totalAmountPayed,\r\n            storeProduct\r\n        );\r\n        // Object Of transection stored in  walmartTransection in smartcontract\r\n        walmartTransections[msg.sender] = transection;\r\n\r\n        totalWalmartEarning = totalWalmartEarning + totalAmountPayed;\r\n    }\r\n}\r\n",
  "sourcePath": "G:\\PROJECT\\Blockchain Project\\contracts\\WalmartNFT.sol",
  "compiler": {
    "name": "solc",
    "version": "0.8.3+commit.8d00100c.Emscripten.clang"
  },
  "schemaVersion": "3.4.7",
  "updatedAt": "2022-06-15T21:50:43.163Z",
  "networkType": "ethereum",
  "devdoc": {
    "kind": "dev",
    "methods": {
      "approve(address,uint256)": {
        "details": "See {IERC721-approve}."
      },
      "balanceOf(address)": {
        "details": "See {IERC721-balanceOf}."
      },
      "getApproved(uint256)": {
        "details": "See {IERC721-getApproved}."
      },
      "isApprovedForAll(address,address)": {
        "details": "See {IERC721-isApprovedForAll}."
      },
      "name()": {
        "details": "See {IERC721Metadata-name}."
      },
      "ownerOf(uint256)": {
        "details": "See {IERC721-ownerOf}."
      },
      "safeTransferFrom(address,address,uint256)": {
        "details": "See {IERC721-safeTransferFrom}."
      },
      "safeTransferFrom(address,address,uint256,bytes)": {
        "details": "See {IERC721-safeTransferFrom}."
      },
      "setApprovalForAll(address,bool)": {
        "details": "See {IERC721-setApprovalForAll}."
      },
      "supportsInterface(bytes4)": {
        "details": "See {IERC165-supportsInterface}."
      },
      "symbol()": {
        "details": "See {IERC721Metadata-symbol}."
      },
      "tokenURI(uint256)": {
        "details": "See {IERC721Metadata-tokenURI}."
      },
      "transferFrom(address,address,uint256)": {
        "details": "See {IERC721-transferFrom}."
      }
    },
    "version": 1
  },
  "userdoc": {
    "kind": "user",
    "methods": {},
    "version": 1
  }
}