{
  "contractName": "WalmartFT",
  "abi": [
    {
      "inputs": [],
      "stateMutability": "nonpayable",
      "type": "constructor"
    },
    {
      "anonymous": false,
      "inputs": [
        {
          "indexed": true,
          "internalType": "address",
          "name": "owner",
          "type": "address"
        },
        {
          "indexed": true,
          "internalType": "address",
          "name": "spender",
          "type": "address"
        },
        {
          "indexed": false,
          "internalType": "uint256",
          "name": "value",
          "type": "uint256"
        }
      ],
      "name": "Approval",
      "type": "event"
    },
    {
      "anonymous": false,
      "inputs": [
        {
          "indexed": true,
          "internalType": "address",
          "name": "from",
          "type": "address"
        },
        {
          "indexed": true,
          "internalType": "address",
          "name": "to",
          "type": "address"
        },
        {
          "indexed": false,
          "internalType": "uint256",
          "name": "value",
          "type": "uint256"
        }
      ],
      "name": "Transfer",
      "type": "event"
    },
    {
      "inputs": [],
      "name": "INITIAL_SUPPLY",
      "outputs": [
        {
          "internalType": "uint256",
          "name": "",
          "type": "uint256"
        }
      ],
      "stateMutability": "view",
      "type": "function",
      "constant": true
    },
    {
      "inputs": [
        {
          "internalType": "address",
          "name": "owner",
          "type": "address"
        },
        {
          "internalType": "address",
          "name": "spender",
          "type": "address"
        }
      ],
      "name": "allowance",
      "outputs": [
        {
          "internalType": "uint256",
          "name": "",
          "type": "uint256"
        }
      ],
      "stateMutability": "view",
      "type": "function",
      "constant": true
    },
    {
      "inputs": [
        {
          "internalType": "address",
          "name": "spender",
          "type": "address"
        },
        {
          "internalType": "uint256",
          "name": "amount",
          "type": "uint256"
        }
      ],
      "name": "approve",
      "outputs": [
        {
          "internalType": "bool",
          "name": "",
          "type": "bool"
        }
      ],
      "stateMutability": "nonpayable",
      "type": "function"
    },
    {
      "inputs": [
        {
          "internalType": "address",
          "name": "account",
          "type": "address"
        }
      ],
      "name": "balanceOf",
      "outputs": [
        {
          "internalType": "uint256",
          "name": "",
          "type": "uint256"
        }
      ],
      "stateMutability": "view",
      "type": "function",
      "constant": true
    },
    {
      "inputs": [],
      "name": "decimals",
      "outputs": [
        {
          "internalType": "uint8",
          "name": "",
          "type": "uint8"
        }
      ],
      "stateMutability": "view",
      "type": "function",
      "constant": true
    },
    {
      "inputs": [
        {
          "internalType": "address",
          "name": "spender",
          "type": "address"
        },
        {
          "internalType": "uint256",
          "name": "subtractedValue",
          "type": "uint256"
        }
      ],
      "name": "decreaseAllowance",
      "outputs": [
        {
          "internalType": "bool",
          "name": "",
          "type": "bool"
        }
      ],
      "stateMutability": "nonpayable",
      "type": "function"
    },
    {
      "inputs": [
        {
          "internalType": "address",
          "name": "spender",
          "type": "address"
        },
        {
          "internalType": "uint256",
          "name": "addedValue",
          "type": "uint256"
        }
      ],
      "name": "increaseAllowance",
      "outputs": [
        {
          "internalType": "bool",
          "name": "",
          "type": "bool"
        }
      ],
      "stateMutability": "nonpayable",
      "type": "function"
    },
    {
      "inputs": [],
      "name": "name",
      "outputs": [
        {
          "internalType": "string",
          "name": "",
          "type": "string"
        }
      ],
      "stateMutability": "view",
      "type": "function",
      "constant": true
    },
    {
      "inputs": [],
      "name": "symbol",
      "outputs": [
        {
          "internalType": "string",
          "name": "",
          "type": "string"
        }
      ],
      "stateMutability": "view",
      "type": "function",
      "constant": true
    },
    {
      "inputs": [],
      "name": "totalSupply",
      "outputs": [
        {
          "internalType": "uint256",
          "name": "",
          "type": "uint256"
        }
      ],
      "stateMutability": "view",
      "type": "function",
      "constant": true
    },
    {
      "inputs": [
        {
          "internalType": "address",
          "name": "to",
          "type": "address"
        },
        {
          "internalType": "uint256",
          "name": "amount",
          "type": "uint256"
        }
      ],
      "name": "transfer",
      "outputs": [
        {
          "internalType": "bool",
          "name": "",
          "type": "bool"
        }
      ],
      "stateMutability": "nonpayable",
      "type": "function"
    },
    {
      "inputs": [
        {
          "internalType": "address",
          "name": "from",
          "type": "address"
        },
        {
          "internalType": "address",
          "name": "to",
          "type": "address"
        },
        {
          "internalType": "uint256",
          "name": "amount",
          "type": "uint256"
        }
      ],
      "name": "transferFrom",
      "outputs": [
        {
          "internalType": "bool",
          "name": "",
          "type": "bool"
        }
      ],
      "stateMutability": "nonpayable",
      "type": "function"
    },
    {
      "inputs": [
        {
          "internalType": "address",
          "name": "",
          "type": "address"
        }
      ],
      "name": "walmartTransections",
      "outputs": [
        {
          "internalType": "string",
          "name": "dateOfTransection",
          "type": "string"
        },
        {
          "internalType": "string",
          "name": "transectionPerformedBy",
          "type": "string"
        },
        {
          "internalType": "uint256",
          "name": "totalAmountPayed",
          "type": "uint256"
        },
        {
          "components": [
            {
              "internalType": "string",
              "name": "productName",
              "type": "string"
            },
            {
              "internalType": "string",
              "name": "productID",
              "type": "string"
            },
            {
              "internalType": "string",
              "name": "uri",
              "type": "string"
            },
            {
              "components": [
                {
                  "internalType": "string",
                  "name": "storeType",
                  "type": "string"
                },
                {
                  "internalType": "string",
                  "name": "storeName",
                  "type": "string"
                },
                {
                  "internalType": "string",
                  "name": "storeId",
                  "type": "string"
                }
              ],
              "internalType": "struct WalmartFT.Store",
              "name": "store",
              "type": "tuple"
            }
          ],
          "internalType": "struct WalmartFT.StoreProduct",
          "name": "storeProduct",
          "type": "tuple"
        }
      ],
      "stateMutability": "view",
      "type": "function",
      "constant": true
    },
    {
      "inputs": [
        {
          "internalType": "string",
          "name": "dateOfTransection",
          "type": "string"
        },
        {
          "internalType": "string",
          "name": "transectionPerformedBy",
          "type": "string"
        },
        {
          "internalType": "uint256",
          "name": "totalAmountPayed",
          "type": "uint256"
        },
        {
          "internalType": "uint256",
          "name": "productAmount",
          "type": "uint256"
        },
        {
          "internalType": "string",
          "name": "productName",
          "type": "string"
        },
        {
          "internalType": "string",
          "name": "productID",
          "type": "string"
        },
        {
          "internalType": "string",
          "name": "productURI",
          "type": "string"
        },
        {
          "internalType": "string",
          "name": "storeType",
          "type": "string"
        },
        {
          "internalType": "string",
          "name": "storeName",
          "type": "string"
        },
        {
          "internalType": "string",
          "name": "storeId",
          "type": "string"
        }
      ],
      "name": "WalmartPaymentInFT",
      "outputs": [],
      "stateMutability": "nonpayable",
      "type": "function"
    }
  ],
  "bytecode": "0x608060405264174876e80060055560006006553480156200001f57600080fd5b506040518060400160405280600b81526020017f57616c6d617274436f696e0000000000000000000000000000000000000000008152506040518060400160405280600281526020017f57430000000000000000000000000000000000000000000000000000000000008152508160039080519060200190620000a492919062000278565b508060049080519060200190620000bd92919062000278565b505050620000dd33600554620000e3640100000000026401000000009004565b620004d4565b600073ffffffffffffffffffffffffffffffffffffffff168273ffffffffffffffffffffffffffffffffffffffff16141562000156576040517f08c379a00000000000000000000000000000000000000000000000000000000081526004016200014d9062000360565b60405180910390fd5b62000173600083836200026e640100000000026401000000009004565b8060026000828254620001879190620003b0565b92505081905550806000808473ffffffffffffffffffffffffffffffffffffffff1673ffffffffffffffffffffffffffffffffffffffff1681526020019081526020016000206000828254620001de9190620003b0565b925050819055508173ffffffffffffffffffffffffffffffffffffffff16600073ffffffffffffffffffffffffffffffffffffffff167fddf252ad1be2c89b69c2b068fc378daa952ba7f163c4a11628f55a4df523b3ef8360405162000245919062000382565b60405180910390a36200026a6000838362000273640100000000026401000000009004565b5050565b505050565b505050565b828054620002869062000417565b90600052602060002090601f016020900481019282620002aa5760008555620002f6565b82601f10620002c557805160ff1916838001178555620002f6565b82800160010185558215620002f6579182015b82811115620002f5578251825591602001919060010190620002d8565b5b50905062000305919062000309565b5090565b5b80821115620003245760008160009055506001016200030a565b5090565b600062000337601f836200039f565b91506200034482620004ab565b602082019050919050565b6200035a816200040d565b82525050565b600060208201905081810360008301526200037b8162000328565b9050919050565b60006020820190506200039960008301846200034f565b92915050565b600082825260208201905092915050565b6000620003bd826200040d565b9150620003ca836200040d565b9250827fffffffffffffffffffffffffffffffffffffffffffffffffffffffffffffffff038211156200040257620004016200044d565b5b828201905092915050565b6000819050919050565b600060028204905060018216806200043057607f821691505b602082108114156200044757620004466200047c565b5b50919050565b7f4e487b7100000000000000000000000000000000000000000000000000000000600052601160045260246000fd5b7f4e487b7100000000000000000000000000000000000000000000000000000000600052602260045260246000fd5b7f45524332303a206d696e7420746f20746865207a65726f206164647265737300600082015250565b611dfb80620004e46000396000f3fe608060405234801561001057600080fd5b5060043610610107576000357c01000000000000000000000000000000000000000000000000000000009004806339509351116100a957806395d89b411161008357806395d89b4114610293578063a457c2d7146102b1578063a9059cbb146102e1578063dd62ed3e1461031157610107565b80633950935114610200578063513ce1711461023057806370a082311461026357610107565b806323b872dd116100e557806323b872dd14610178578063260f25dc146101a85780632ff2e9dc146101c4578063313ce567146101e257610107565b806306fdde031461010c578063095ea7b31461012a57806318160ddd1461015a575b600080fd5b610114610341565b60405161012191906117da565b60405180910390f35b610144600480360381019061013f91906113a1565b6103d3565b60405161015191906117bf565b60405180910390f35b6101626103f6565b60405161016f9190611916565b60405180910390f35b610192600480360381019061018d9190611352565b610400565b60405161019f91906117bf565b60405180910390f35b6101c260048036038101906101bd91906113dd565b610418565b005b6101cc61064f565b6040516101d99190611916565b60405180910390f35b6101ea610655565b6040516101f79190611931565b60405180910390f35b61021a600480360381019061021591906113a1565b61065e565b60405161022791906117bf565b60405180910390f35b61024a600480360381019061024591906112ed565b610695565b60405161025a94939291906117fc565b60405180910390f35b61027d600480360381019061027891906112ed565b610b5f565b60405161028a9190611916565b60405180910390f35b61029b610ba7565b6040516102a891906117da565b60405180910390f35b6102cb60048036038101906102c691906113a1565b610c39565b6040516102d891906117bf565b60405180910390f35b6102fb60048036038101906102f691906113a1565b610cb0565b60405161030891906117bf565b60405180910390f35b61032b60048036038101906103269190611316565b610cd3565b6040516103389190611916565b60405180910390f35b60606003805461035090611abc565b80601f016020809104026020016040519081016040528092919081815260200182805461037c90611abc565b80156103c95780601f1061039e576101008083540402835291602001916103c9565b820191906000526020600020905b8154815290600101906020018083116103ac57829003601f168201915b5050505050905090565b6000806103de610d5a565b90506103eb818585610d62565b600191505092915050565b6000600254905090565b600061040d848484610f2d565b600190509392505050565b87871461042457600080fd5b600086511161043257600080fd5b600085511161044057600080fd5b600082511161044e57600080fd5b600081511161045c57600080fd5b60008a511161046a57600080fd5b600089511161047857600080fd5b6000604051806060016040528085815260200184815260200183815250905060006040518060800160405280898152602001888152602001878152602001838152509050600060405180608001604052808e81526020018d81526020018c815260200183815250905080600760003373ffffffffffffffffffffffffffffffffffffffff1673ffffffffffffffffffffffffffffffffffffffff168152602001908152602001600020600082015181600001908051906020019061053d9291906111b8565b50602082015181600101908051906020019061055a9291906111b8565b5060408201518160020155606082015181600301600082015181600001908051906020019061058a9291906111b8565b5060208201518160010190805190602001906105a79291906111b8565b5060408201518160020190805190602001906105c49291906111b8565b5060608201518160030160008201518160000190805190602001906105ea9291906111b8565b5060208201518160010190805190602001906106079291906111b8565b5060408201518160020190805190602001906106249291906111b8565b50505050509050508a60065461063a91906119cf565b60068190555050505050505050505050505050565b60055481565b60006012905090565b600080610669610d5a565b905061068a81858561067b8589610cd3565b61068591906119cf565b610d62565b600191505092915050565b60076020528060005260406000206000915090508060000180546106b890611abc565b80601f01602080910402602001604051908101604052809291908181526020018280546106e490611abc565b80156107315780601f1061070657610100808354040283529160200191610731565b820191906000526020600020905b81548152906001019060200180831161071457829003601f168201915b50505050509080600101805461074690611abc565b80601f016020809104026020016040519081016040528092919081815260200182805461077290611abc565b80156107bf5780601f10610794576101008083540402835291602001916107bf565b820191906000526020600020905b8154815290600101906020018083116107a257829003601f168201915b505050505090806002015490806003016040518060800160405290816000820180546107ea90611abc565b80601f016020809104026020016040519081016040528092919081815260200182805461081690611abc565b80156108635780601f1061083857610100808354040283529160200191610863565b820191906000526020600020905b81548152906001019060200180831161084657829003601f168201915b5050505050815260200160018201805461087c90611abc565b80601f01602080910402602001604051908101604052809291908181526020018280546108a890611abc565b80156108f55780601f106108ca576101008083540402835291602001916108f5565b820191906000526020600020905b8154815290600101906020018083116108d857829003601f168201915b5050505050815260200160028201805461090e90611abc565b80601f016020809104026020016040519081016040528092919081815260200182805461093a90611abc565b80156109875780601f1061095c57610100808354040283529160200191610987565b820191906000526020600020905b81548152906001019060200180831161096a57829003601f168201915b50505050508152602001600382016040518060600160405290816000820180546109b090611abc565b80601f01602080910402602001604051908101604052809291908181526020018280546109dc90611abc565b8015610a295780601f106109fe57610100808354040283529160200191610a29565b820191906000526020600020905b815481529060010190602001808311610a0c57829003601f168201915b50505050508152602001600182018054610a4290611abc565b80601f0160208091040260200160405190810160405280929190818152602001828054610a6e90611abc565b8015610abb5780601f10610a9057610100808354040283529160200191610abb565b820191906000526020600020905b815481529060010190602001808311610a9e57829003601f168201915b50505050508152602001600282018054610ad490611abc565b80601f0160208091040260200160405190810160405280929190818152602001828054610b0090611abc565b8015610b4d5780601f10610b2257610100808354040283529160200191610b4d565b820191906000526020600020905b815481529060010190602001808311610b3057829003601f168201915b50505050508152505081525050905084565b60008060008373ffffffffffffffffffffffffffffffffffffffff1673ffffffffffffffffffffffffffffffffffffffff168152602001908152602001600020549050919050565b606060048054610bb690611abc565b80601f0160208091040260200160405190810160405280929190818152602001828054610be290611abc565b8015610c2f5780601f10610c0457610100808354040283529160200191610c2f565b820191906000526020600020905b815481529060010190602001808311610c1257829003601f168201915b5050505050905090565b600080610c44610d5a565b90506000610c528286610cd3565b905083811015610c97576040517f08c379a0000000000000000000000000000000000000000000000000000000008152600401610c8e906118f6565b60405180910390fd5b610ca48286868403610d62565b60019250505092915050565b600080610cbb610d5a565b9050610cc8818585610f2d565b600191505092915050565b6000600160008473ffffffffffffffffffffffffffffffffffffffff1673ffffffffffffffffffffffffffffffffffffffff16815260200190815260200160002060008373ffffffffffffffffffffffffffffffffffffffff1673ffffffffffffffffffffffffffffffffffffffff16815260200190815260200160002054905092915050565b600033905090565b600073ffffffffffffffffffffffffffffffffffffffff168373ffffffffffffffffffffffffffffffffffffffff161415610dd2576040517f08c379a0000000000000000000000000000000000000000000000000000000008152600401610dc9906118d6565b60405180910390fd5b600073ffffffffffffffffffffffffffffffffffffffff168273ffffffffffffffffffffffffffffffffffffffff161415610e42576040517f08c379a0000000000000000000000000000000000000000000000000000000008152600401610e3990611876565b60405180910390fd5b80600160008573ffffffffffffffffffffffffffffffffffffffff1673ffffffffffffffffffffffffffffffffffffffff16815260200190815260200160002060008473ffffffffffffffffffffffffffffffffffffffff1673ffffffffffffffffffffffffffffffffffffffff168152602001908152602001600020819055508173ffffffffffffffffffffffffffffffffffffffff168373ffffffffffffffffffffffffffffffffffffffff167f8c5be1e5ebec7d5bd14f71427d1e84f3dd0314c0f7b2291e5b200ac8c7c3b92583604051610f209190611916565b60405180910390a3505050565b600073ffffffffffffffffffffffffffffffffffffffff168373ffffffffffffffffffffffffffffffffffffffff161415610f9d576040517f08c379a0000000000000000000000000000000000000000000000000000000008152600401610f94906118b6565b60405180910390fd5b600073ffffffffffffffffffffffffffffffffffffffff168273ffffffffffffffffffffffffffffffffffffffff16141561100d576040517f08c379a000000000000000000000000000000000000000000000000000000000815260040161100490611856565b60405180910390fd5b6110188383836111ae565b60008060008573ffffffffffffffffffffffffffffffffffffffff1673ffffffffffffffffffffffffffffffffffffffff1681526020019081526020016000205490508181101561109e576040517f08c379a000000000000000000000000000000000000000000000000000000000815260040161109590611896565b60405180910390fd5b8181036000808673ffffffffffffffffffffffffffffffffffffffff1673ffffffffffffffffffffffffffffffffffffffff16815260200190815260200160002081905550816000808573ffffffffffffffffffffffffffffffffffffffff1673ffffffffffffffffffffffffffffffffffffffff168152602001908152602001600020600082825461113191906119cf565b925050819055508273ffffffffffffffffffffffffffffffffffffffff168473ffffffffffffffffffffffffffffffffffffffff167fddf252ad1be2c89b69c2b068fc378daa952ba7f163c4a11628f55a4df523b3ef846040516111959190611916565b60405180910390a36111a88484846111b3565b50505050565b505050565b505050565b8280546111c490611abc565b90600052602060002090601f0160209004810192826111e6576000855561122d565b82601f106111ff57805160ff191683800117855561122d565b8280016001018555821561122d579182015b8281111561122c578251825591602001919060010190611211565b5b50905061123a919061123e565b5090565b5b8082111561125757600081600090555060010161123f565b5090565b600061126e61126984611971565b61194c565b90508281526020810184848401111561128657600080fd5b611291848285611a7a565b509392505050565b6000813590506112a881611d97565b92915050565b600082601f8301126112bf57600080fd5b81356112cf84826020860161125b565b91505092915050565b6000813590506112e781611dae565b92915050565b6000602082840312156112ff57600080fd5b600061130d84828501611299565b91505092915050565b6000806040838503121561132957600080fd5b600061133785828601611299565b925050602061134885828601611299565b9150509250929050565b60008060006060848603121561136757600080fd5b600061137586828701611299565b935050602061138686828701611299565b9250506040611397868287016112d8565b9150509250925092565b600080604083850312156113b457600080fd5b60006113c285828601611299565b92505060206113d3858286016112d8565b9150509250929050565b6000806000806000806000806000806101408b8d0312156113fd57600080fd5b60008b013567ffffffffffffffff81111561141757600080fd5b6114238d828e016112ae565b9a505060208b013567ffffffffffffffff81111561144057600080fd5b61144c8d828e016112ae565b995050604061145d8d828e016112d8565b985050606061146e8d828e016112d8565b97505060808b013567ffffffffffffffff81111561148b57600080fd5b6114978d828e016112ae565b96505060a08b013567ffffffffffffffff8111156114b457600080fd5b6114c08d828e016112ae565b95505060c08b013567ffffffffffffffff8111156114dd57600080fd5b6114e98d828e016112ae565b94505060e08b013567ffffffffffffffff81111561150657600080fd5b6115128d828e016112ae565b9350506101008b013567ffffffffffffffff81111561153057600080fd5b61153c8d828e016112ae565b9250506101208b013567ffffffffffffffff81111561155a57600080fd5b6115668d828e016112ae565b9150509295989b9194979a5092959850565b61158181611a37565b82525050565b6000611592826119a2565b61159c81856119ad565b93506115ac818560208601611a89565b6115b581611bac565b840191505092915050565b60006115cb826119a2565b6115d581856119be565b93506115e5818560208601611a89565b6115ee81611bac565b840191505092915050565b60006116066023836119be565b915061161182611bbd565b604082019050919050565b60006116296022836119be565b915061163482611c0c565b604082019050919050565b600061164c6026836119be565b915061165782611c5b565b604082019050919050565b600061166f6025836119be565b915061167a82611caa565b604082019050919050565b60006116926024836119be565b915061169d82611cf9565b604082019050919050565b60006116b56025836119be565b91506116c082611d48565b604082019050919050565b600060808301600083015184820360008601526116e88282611587565b915050602083015184820360208601526117028282611587565b9150506040830151848203604086015261171c8282611587565b915050606083015184820360608601526117368282611743565b9150508091505092915050565b600060608301600083015184820360008601526117608282611587565b9150506020830151848203602086015261177a8282611587565b915050604083015184820360408601526117948282611587565b9150508091505092915050565b6117aa81611a63565b82525050565b6117b981611a6d565b82525050565b60006020820190506117d46000830184611578565b92915050565b600060208201905081810360008301526117f481846115c0565b905092915050565b6000608082019050818103600083015261181681876115c0565b9050818103602083015261182a81866115c0565b905061183960408301856117a1565b818103606083015261184b81846116cb565b905095945050505050565b6000602082019050818103600083015261186f816115f9565b9050919050565b6000602082019050818103600083015261188f8161161c565b9050919050565b600060208201905081810360008301526118af8161163f565b9050919050565b600060208201905081810360008301526118cf81611662565b9050919050565b600060208201905081810360008301526118ef81611685565b9050919050565b6000602082019050818103600083015261190f816116a8565b9050919050565b600060208201905061192b60008301846117a1565b92915050565b600060208201905061194660008301846117b0565b92915050565b6000611956611967565b90506119628282611aee565b919050565b6000604051905090565b600067ffffffffffffffff82111561198c5761198b611b7d565b5b61199582611bac565b9050602081019050919050565b600081519050919050565b600082825260208201905092915050565b600082825260208201905092915050565b60006119da82611a63565b91506119e583611a63565b9250827fffffffffffffffffffffffffffffffffffffffffffffffffffffffffffffffff03821115611a1a57611a19611b1f565b5b828201905092915050565b6000611a3082611a43565b9050919050565b60008115159050919050565b600073ffffffffffffffffffffffffffffffffffffffff82169050919050565b6000819050919050565b600060ff82169050919050565b82818337600083830152505050565b60005b83811015611aa7578082015181840152602081019050611a8c565b83811115611ab6576000848401525b50505050565b60006002820490506001821680611ad457607f821691505b60208210811415611ae857611ae7611b4e565b5b50919050565b611af782611bac565b810181811067ffffffffffffffff82111715611b1657611b15611b7d565b5b80604052505050565b7f4e487b7100000000000000000000000000000000000000000000000000000000600052601160045260246000fd5b7f4e487b7100000000000000000000000000000000000000000000000000000000600052602260045260246000fd5b7f4e487b7100000000000000000000000000000000000000000000000000000000600052604160045260246000fd5b6000601f19601f8301169050919050565b7f45524332303a207472616e7366657220746f20746865207a65726f206164647260008201527f6573730000000000000000000000000000000000000000000000000000000000602082015250565b7f45524332303a20617070726f766520746f20746865207a65726f20616464726560008201527f7373000000000000000000000000000000000000000000000000000000000000602082015250565b7f45524332303a207472616e7366657220616d6f756e742065786365656473206260008201527f616c616e63650000000000000000000000000000000000000000000000000000602082015250565b7f45524332303a207472616e736665722066726f6d20746865207a65726f20616460008201527f6472657373000000000000000000000000000000000000000000000000000000602082015250565b7f45524332303a20617070726f76652066726f6d20746865207a65726f2061646460008201527f7265737300000000000000000000000000000000000000000000000000000000602082015250565b7f45524332303a2064656372656173656420616c6c6f77616e63652062656c6f7760008201527f207a65726f000000000000000000000000000000000000000000000000000000602082015250565b611da081611a25565b8114611dab57600080fd5b50565b611db781611a63565b8114611dc257600080fd5b5056fea264697066735822122088a1ca26e635d0f04e1cfefbface2e2b0fd593b7d890fcce36bc063dcabdca4164736f6c63430008030033",
  "immutableReferences": {},
  "source": "// contracts/GameItem.sol\r\n// SPDX-License-Identifier: MIT\r\npragma solidity >=0.4.22 <0.9.0;\r\nimport \"@openzeppelin/contracts/token/ERC20/ERC20.sol\";\r\n\r\ncontract WalmartFT is ERC20 {\r\n    uint256 public INITIAL_SUPPLY = 100000000000; // 5 ether == 1 WC\r\n\r\n    constructor() ERC20(\"WalmartCoin\", \"WC\") {\r\n        _mint(msg.sender, INITIAL_SUPPLY);\r\n    }\r\n\r\n    uint256 totalWalmartEarning = 0;\r\n    struct Store {\r\n        string storeType;\r\n        string storeName;\r\n        string storeId;\r\n    }\r\n    struct StoreProduct {\r\n        string productName;\r\n        string productID;\r\n        string uri;\r\n        Store store;\r\n    }\r\n    struct Transection {\r\n        string dateOfTransection;\r\n        string transectionPerformedBy;\r\n        uint256 totalAmountPayed;\r\n        StoreProduct storeProduct;\r\n    }\r\n    mapping(address => Transection) public walmartTransections;\r\n\r\n    function WalmartPaymentInFT(\r\n        string memory dateOfTransection,\r\n        string memory transectionPerformedBy,\r\n        uint256 totalAmountPayed,\r\n        uint256 productAmount,\r\n        string memory productName,\r\n        string memory productID,\r\n        string memory productURI,\r\n        string memory storeType,\r\n        string memory storeName,\r\n        string memory storeId\r\n    ) public {\r\n        // Validate Transection :: =>\r\n        //    1) validate Amount payed\r\n        //    2) productName should not be empty\r\n        //    3) productID should not be empty\r\n        //    4) storeName should not be empty\r\n        //    5) storeId should not be empty\r\n        //    6) dateOfTransection should not be empty\r\n        //    7) transectionPerformedBy should not be empty\r\n\r\n        require(productAmount == totalAmountPayed);\r\n        require(bytes(productName).length > 0);\r\n        require(bytes(productID).length > 0);\r\n        require(bytes(storeName).length > 0);\r\n        require(bytes(storeId).length > 0);\r\n        require(bytes(dateOfTransection).length > 0);\r\n        require(bytes(transectionPerformedBy).length > 0);\r\n\r\n        // Store , Store Product , Transection objects ::=>\r\n        Store memory store = Store(storeType, storeName, storeId);\r\n        StoreProduct memory storeProduct = StoreProduct(\r\n            productName,\r\n            productID,\r\n            productURI,\r\n            store\r\n        );\r\n        Transection memory transection = Transection(\r\n            dateOfTransection,\r\n            transectionPerformedBy,\r\n            totalAmountPayed,\r\n            storeProduct\r\n        );\r\n        // Object Of transection stored in  walmartTransection in smartcontract\r\n        walmartTransections[msg.sender] = transection;\r\n\r\n        totalWalmartEarning = totalWalmartEarning + totalAmountPayed;\r\n    }\r\n}\r\n",
  "sourcePath": "G:\\PROJECT\\Blockchain Project\\contracts\\WalmartFT.sol",
  "compiler": {
    "name": "solc",
    "version": "0.8.3+commit.8d00100c.Emscripten.clang"
  },
  "schemaVersion": "3.4.7",
  "updatedAt": "2022-06-15T21:50:47.444Z",
  "networkType": "ethereum",
  "devdoc": {
    "kind": "dev",
    "methods": {
      "allowance(address,address)": {
        "details": "See {IERC20-allowance}."
      },
      "approve(address,uint256)": {
        "details": "See {IERC20-approve}. NOTE: If `amount` is the maximum `uint256`, the allowance is not updated on `transferFrom`. This is semantically equivalent to an infinite approval. Requirements: - `spender` cannot be the zero address."
      },
      "balanceOf(address)": {
        "details": "See {IERC20-balanceOf}."
      },
      "decimals()": {
        "details": "Returns the number of decimals used to get its user representation. For example, if `decimals` equals `2`, a balance of `505` tokens should be displayed to a user as `5.05` (`505 / 10 ** 2`). Tokens usually opt for a value of 18, imitating the relationship between Ether and Wei. This is the value {ERC20} uses, unless this function is overridden; NOTE: This information is only used for _display_ purposes: it in no way affects any of the arithmetic of the contract, including {IERC20-balanceOf} and {IERC20-transfer}."
      },
      "decreaseAllowance(address,uint256)": {
        "details": "Atomically decreases the allowance granted to `spender` by the caller. This is an alternative to {approve} that can be used as a mitigation for problems described in {IERC20-approve}. Emits an {Approval} event indicating the updated allowance. Requirements: - `spender` cannot be the zero address. - `spender` must have allowance for the caller of at least `subtractedValue`."
      },
      "increaseAllowance(address,uint256)": {
        "details": "Atomically increases the allowance granted to `spender` by the caller. This is an alternative to {approve} that can be used as a mitigation for problems described in {IERC20-approve}. Emits an {Approval} event indicating the updated allowance. Requirements: - `spender` cannot be the zero address."
      },
      "name()": {
        "details": "Returns the name of the token."
      },
      "symbol()": {
        "details": "Returns the symbol of the token, usually a shorter version of the name."
      },
      "totalSupply()": {
        "details": "See {IERC20-totalSupply}."
      },
      "transfer(address,uint256)": {
        "details": "See {IERC20-transfer}. Requirements: - `to` cannot be the zero address. - the caller must have a balance of at least `amount`."
      },
      "transferFrom(address,address,uint256)": {
        "details": "See {IERC20-transferFrom}. Emits an {Approval} event indicating the updated allowance. This is not required by the EIP. See the note at the beginning of {ERC20}. NOTE: Does not update the allowance if the current allowance is the maximum `uint256`. Requirements: - `from` and `to` cannot be the zero address. - `from` must have a balance of at least `amount`. - the caller must have allowance for ``from``'s tokens of at least `amount`."
      }
    },
    "version": 1
  },
  "userdoc": {
    "kind": "user",
    "methods": {},
    "version": 1
  }
}